:100000000C9490030C94AD030C94AD030C94832AD0
:100010000C94DC130C94AD030C94AD030C94AD0361
:100020000C94AD030C94C6190C94AD030C94CE162D
:100030000C94AD030C94AD030C94AD030C94AD0380
:100040000C94AD030C94AD030C9450130C94121348
:100050000C94AD030C94AD030C94AD030C94AD0360
:100060000C94AD030C94AD036B1C6B1C6B1C801CBF
:10007000931C9C1CA51CAE1CB71CD01CDB1CE41CD8
:10008000ED1CF61C051D161D251D381D471D501D98
:10009000591D621D6F1D084AD73B3BCE016E84BCC3
:1000A000BFFDC12F3D6C74319ABD56833DDA3D00D2
:1000B000C77F11BED9E4BB4C3E916BAAAABE00001B
:1000C00000803F05A84CCDB2D44EB93836A9020CF9
:1000D00050B9918688083CA6AAAA2ABE00000080D2
:1000E0003F6F6B0D0A006572726F723A20004261B9
:1000F00064206E756D62657220666F726D6174004A
:10010000457870656374656420636F6D6D616E64BE
:10011000206C657474657200556E737570706F72C3
:100120007465642073746174656D656E7400496EE6
:1001300076616C696420726164697573004D6F64E7
:10014000616C2067726F75702076696F6C6174697D
:100150006F6E00496E76616C6964207374617465BA
:100160006D656E740053657474696E67206469739D
:1001700061626C65640056616C7565203C20302EB0
:10018000300056616C7565203C20332075736563C3
:1001900000454550524F4D2072656164206661698B
:1001A0006C2E205573696E672064656661756C748A
:1001B000730042757379206F72207175657565647F
:1001C00000416C61726D206C6F636B004C696E65F1
:1001D000206F766572666C6F77000D0A00414C41A6
:1001E000524D3A200048617264206C696D69740058
:1001F00041626F727420647572696E6720637963FF
:100200006C65002E204D506F733F0D0A005B00524D
:100210006573657420746F20636F6E74696E7565A5
:1002200000272448277C2724582720746F20756EC8
:100230006C6F636B0043617574696F6E3A20556E25
:100240006C6F636B656400456E61626C656400444D
:10025000697361626C6564005D0D0A000D0A477286
:10026000626C20302E3863205B27242720666F7253
:100270002068656C705D0D0A00242420287669656D
:1002800077204772626C2073657474696E67732996
:100290000D0A242320287669657720232070617257
:1002A000616D6574657273290D0A2447202876698B
:1002B000657720706172736572207374617465294B
:1002C0000D0A244E20287669657720737461727454
:1002D000757020626C6F636B73290D0A24783D760C
:1002E000616C7565202873617665204772626C20A9
:1002F00073657474696E67290D0A244E783D6C69C4
:100300006E652028736176652073746172747570F0
:1003100020626C6F636B290D0A2443202863686593
:10032000636B2067636F6465206D6F6465290D0AD8
:10033000245820286B696C6C20616C61726D206C94
:100340006F636B290D0A2448202872756E20686F30
:100350006D696E67206379636C65290D0A7E2028BC
:100360006379636C65207374617274290D0A2120AE
:10037000286665656420686F6C64290D0A3F202833
:1003800063757272656E7420737461747573290D70
:100390000A6374726C2D7820287265736574204727
:1003A00072626C290D0A0024303D002028782C2030
:1003B000737465702F6D6D290D0A24313D0020285E
:1003C000792C20737465702F6D6D290D0A24323DD0
:1003D0000020287A2C20737465702F6D6D290D0A0A
:1003E00024333D002028737465702070756C73652C
:1003F0002C2075736563290D0A24343D0020286480
:10040000656661756C7420666565642C206D6D2F62
:100410006D696E290D0A24353D00202864656661EA
:10042000756C74207365656B2C206D6D2F6D696E16
:10043000290D0A24363D0020287374657020706FE2
:10044000727420696E76657274206D61736B2C20F6
:10045000696E743A00290D0A24373D002028737410
:1004600065702069646C652064656C61792C206D11
:10047000736563290D0A24383D0020286163636594
:100480006C65726174696F6E2C206D6D2F7365637E
:100490005E32290D0A24393D0020286A756E637486
:1004A000696F6E20646576696174696F6E2C206D6A
:1004B0006D290D0A2431303D0020286172632C2003
:1004C0006D6D2F7365676D656E74290D0A2431316A
:1004D0003D0020286E2D61726320636F7272656328
:1004E00074696F6E2C20696E74290D0A2431323DB7
:1004F0000020286E2D646563696D616C732C206922
:100500006E74290D0A2431333D0020287265706F06
:10051000727420696E636865732C20626F6F6C293A
:100520000D0A2431343D0020286175746F207374E6
:100530006172742C20626F6F6C290D0A2431353D75
:10054000002028696E76657274207374657020656A
:100550006E61626C652C20626F6F6C290D0A24310C
:10056000363D00202868617264206C696D6974737F
:100570002C20626F6F6C290D0A2431373D00202832
:10058000686F6D696E67206379636C652C20626F9C
:100590006F6C290D0A2431383D002028686F6D6981
:1005A0006E672064697220696E76657274206D6171
:1005B000736B2C20696E743A00290D0A2431393D81
:1005C000002028686F6D696E6720666565642C2061
:1005D0006D6D2F6D696E290D0A2432303D00202883
:1005E000686F6D696E67207365656B2C206D6D2F6C
:1005F0006D696E290D0A2432313D002028686F6D27
:10060000696E67206465626F756E63652C206D731B
:100610006563290D0A2432323D002028686F6D6918
:100620006E672070756C6C2D6F66662C206D6D2961
:100630000D0A005B470035343A0035353A0035364F
:100640003A0035373A0035383A0035393A00323811
:100650003A0033303A002C005D0D0A005B47393216
:100660003A002C005D0D0A005B4730005B4731000B
:100670005B4732005B4733005B4738300020470060
:1006800020473137002047313800204731390020DA
:1006900047323000204732310020473930002047B0
:1006A00039310020473933002047393400204D309C
:1006B00000204D3100204D3200204D3300204D34BC
:1006C00000204D3500204D3900204D3800205400C9
:1006D0002046005D0D0A00244E003D000D0A003C3E
:1006E00049646C65003C5175657565003C52756EDA
:1006F000003C486F6C64003C486F6D65003C416C89
:1007000061726D003C436865636B002C4D506F73E4
:100710003A002C0057506F733A002C003E0D0A002F
:1007200011241FBECFEFD8E0DEBFCDBF11E0A0E0A7
:10073000B1E0E0EFFBE602C005900D92A030B107FA
:10074000D9F716E0A0E0B1E001C01D92A73FB107C4
:10075000E1F70E94AF030C94F6350C9400000E9460
:10076000DF120E94871D0E94F119789480E1ECEB62
:10077000F5E0DF011D928A95E9F781E08093BC05E1
:100780008093BD05D6E0C1E08091BC05882381F14E
:100790000E94A2130E948D210E9426090E94A71385
:1007A0000E94A1120E94C7120E94652A0E94DD19B0
:1007B0000E94F4271092BC051092BE058091E406B9
:1007C00081FF02C0C093CB059091BD05913021F40B
:1007D00084FF02C0D093BD058091BD05863021F411
:1007E00082E00E94E92C04C01092BD050E94BE1355
:1007F0000E9418140E94AA15C7CF4F925F926F9261
:100800007F928F92AF92BF92CF92DF92EF92FF9240
:100810000F931F93CF93DF9300D000D0CDB7DEB7F7
:1008200069837A838B839C8329013A018091BD057A
:10083000873001F10E9418148091BC058823D1F4FF
:100840000E94BE218823B1F769817A818B819C81C6
:10085000A30192010E94D6218091BD05882321F435
:1008600082E0ECEBF5E081838091CB05882311F0E9
:100870000E941F1A0F900F900F900F90DF91CF9151
:100880001F910F91FF90EF90DF90CF90BF90AF90AE
:100890008F907F906F905F904F9008952F923F922E
:1008A0004F925F926F927F928F929F92AF92BF9280
:1008B000CF92DF92EF92FF920F931F93CF93DF932C
:1008C000CDB7DEB7C054D0400FB6F894DEBF0FBE30
:1008D000CDBF9E878D877AA369A33A01298F0CA388
:1008E000EF8EAAA6BBA6CCA6DDA688AA022F10E092
:1008F000000F111F000F111F9A01200F311F3AAB7B
:1009000029ABD9012D903D904D905C90FC01E00FFA
:10091000F11FC201B10120813181428153810E94C6
:100920001A316DAB7EAB8FAB98AFBCA1EB2EFF2421
:10093000EE0CFF1CEE0CFF1CF301EE0DFF1DFCABDB
:10094000EBAB80809180A280B380ED85FE85EE0DBB
:10095000FF1DC501B40120813181428153810E9474
:100960001A3169AF7AAF8BAF9CAFFF8D8F2F90E0BC
:10097000880F991F880F991FED85FE85E80FF91FD5
:1009800020813181428153812D8B3E8B4F8B588F3B
:10099000E9A1FAA1E80FF91F608171818281938139
:1009A0000E9419316EA37FA388A799A7D201C10124
:1009B000B0588D879E87AF87B88BA501940150589A
:1009C000298B3A8B4B8B5C8BE9A1FAA1E00FF11FCD
:1009D0006081718182819381FDA9EEA95FA948ADF3
:1009E0000F2F1E2F252F342FA90198010E94193196
:1009F000662E472EA82E992EE9A1FAA1EE0DFF1D15
:100A00006081718182819381F9ADEAAD5BAD4CADBE
:100A10000F2F1E2F252F342FA90198010E94193165
:100A2000B62E872E282E792E6D857E858F85988906
:100A30000B2D182D222D372DA90198010E94C834A5
:100A40006B017C0169897A898B899C89062D142D1B
:100A50002A2D392DA90198010E94C8349B01AC01AF
:100A6000C701B6010E9419316B8F7C8F8D8F9E8FCD
:100A70006D857E858F8598892A2D392DA90198014C
:100A80000E94C8346B017C0169897A898B899C89B1
:100A90000B2D182D222D372DA90198010E94C83445
:100AA0009B01AC01C701B6010E941A319B01AC0148
:100AB0006B8D7C8D8D8D9E8D0E948D31162F072F15
:100AC000882EB92E6A968FAD6A97A8018823D9F02F
:100AD000852F942FA82DBB2DBC01CD0120E030E047
:100AE000A9010E94F63387FD2CC0A801852F942F01
:100AF000A82DBB2DBC01CD012BED3FE049EC50E40E
:100B00000E9419311AC0852F942FA82DBB2DBC012E
:100B1000CD0120E030E0A9010E94F33118168CF0DD
:100B2000A801852F942FA82DBB2DBC01CD012BED45
:100B30003FE049EC50E40E941A31162F072F882E0F
:100B4000B92EA801852F902FA82DBB2DBC01CD015A
:100B500069962CAD3DAD4EAD5FAD69970E94C8342E
:100B60005EA14FA138A529A5C52ED42EE32EF22EC5
:100B7000A70196010E9403346B017C0120E030E064
:100B8000A9010E94F331882309F42EC2C701B601DE
:100B90002091D8063091D9064091DA065091DB06B3
:100BA0000E94FA310E94D0320E946732DC01CB01F0
:100BB0009FA78EA738A93323B9F0BC0180E090E04D
:100BC0000E9493329B01AC01FAA5EBA57CA56DA513
:100BD0008F2F9E2FA72FB62FBC01CD010E94C834A6
:100BE0006AA77BA78CA79DA7AEA5BFA5BD0180E086
:100BF00090E00E9493326B017C01A801852F902F19
:100C0000A82DBB2DBC01CD01A70196010E94FA3190
:100C10001B018B8F9BA35EA14FA138A529A5852F12
:100C2000942FA32FB22FBC01CD01A70196010E94E2
:100C3000FA316DAF7EAF8FAF21969FAF21973B8D7D
:100C40002BA1822D932DA32FB22FBC01CD0120E02B
:100C500030E040E05FE30E94C8345B8D4BA1022D81
:100C6000132D252F342FA90198010E94C8349B0110
:100C7000AC0160E070E080E89FE30E9419316EA350
:100C80007FA388A799A7BF8DEB2FF0E0EE0FFF1F82
:100C9000EE0FFF1F21E030E02C0F3D1FE20FF31F8E
:100CA0008D899E89AF89B88D80839183A283B38318
:100CB0007724A1E0B0E0B8A3AF8F398D232F30E0C7
:100CC000220F331F220F331F41E050E04C0F5D1FF6
:100CD000420F531F5E8B4D8B9CA1892F90E0880F94
:100CE000991F880F991FAC0FBD1FA80FB91FBA8F8E
:100CF000A98FFDA3ECA352C1272D332727FD3095E3
:100D00008091F60690E0281739070CF05FC06D85DA
:100D10007E858F859889EB8DFBA181019F01A901BB
:100D200098010E94C8346B017C0169897A898B899A
:100D30009C894EA15FA1E8A5F9A58A019F01A9019F
:100D400098010E94C8349B01AC01C701B6010E9402
:100D50001A31962E872E682E492E6D857E858F85B9
:100D60009889E8A5F9A59F01A90198010E94C834B6
:100D7000E62EC72EB82EA92E69897A898B899C897F
:100D8000EB8DFBA181019F01A90198010E94C8344C
:100D90009B01AC01B5018E2D9C2DA72FB62FBC0158
:100DA000CD010E941931462F572F682F792F4D877B
:100DB0005E876F87788B7394A401852F942FA62D5F
:100DC000B42D898B9A8BAB8BBC8B7DC0EF8DF8A13A
:100DD000BF0180E090E00E949332EB8DFBA1810186
:100DE0009F01A90198010E94C834162F072FE82EF1
:100DF000C92EA801852F942FAE2DBC2DBC01CD018D
:100E00000E94F731698B7A8B8B8B9C8BA801852F85
:100E1000942FAE2DBC2DBC01CD010E944B352B0172
:100E20003C01E9A9FAA980819181A281B3816C0179
:100E30007D01F7FAF094F7F8F094ABA9BCA98D9076
:100E40009D90AD90BC90C701B60129893A894B8924
:100E50005C890E94C8346D877E878F87988BC50117
:100E6000B401A30192010E94C8349B01AC016D85BD
:100E70007E858F8598890E941A31AB01682F792F62
:100E80004D875E876F87788BC701B601A3019201FA
:100E90000E94C8346B017C01C501B40129893A89DB
:100EA0004B895C890E94C8349B01AC01C701B60123
:100EB0000E941931462F572F682F792F498B5A8B53
:100EC0006B8B7C8B77245DA94EA93FA928AD852F1C
:100ED000942FA32FB22FBC01CD012D853E854F85C8
:100EE00058890E941A31DC01CB01ED89FE8980838B
:100EF0009183A283B38359AD4AAD3BAD2CAD852F11
:100F0000942FA32FB22FBC01CD0129893A894B8997
:100F10005C890E941A31DC01CB01E98DFA8D808356
:100F20009183A283B383ACA1BDA16D917D918D917D
:100F30009C914DAD5EADEFAD2196FFAD21978A013D
:100F40009F01A90198010E941A31DC01CB01ECA19B
:100F5000FDA180839183A283B38369817A818B8190
:100F60009C812D813E814F815885E984FA840B85CF
:100F70001C85EAA5FBA5ACA5BDA54F015D016501DA
:100F8000540188A80E94FD038091BC05882361F567
:100F90002F8D38A12F5F3F4F38A32F8F4F8D58A132
:100FA0008EA59FA54817590708F4A6CEA9A1BAA1F6
:100FB0006D917D918D919C91139714962D913D91FA
:100FC0004D915C9117971896ED90FD900D911C91A5
:100FD0001B97EAA5FBA5ACA5BDA54F015D01650169
:100FE000540188A80E94FD03C05CDF4F0FB6F8943F
:100FF000DEBF0FBECDBFDF91CF911F910F91FF904C
:10100000EF90DF90CF90BF90AF909F908F907F90A8
:101010006F905F904F903F902F900895CF92DF9206
:10102000EF92FF92CF93DF936B017C0120E030E0E1
:1010300040EA51E40E94C8340E94D0320E946732D4
:10104000DC01CB01EC010E94C621C701B60120E002
:1010500030E04AE754E40E94C8346B017C0182E32B
:1010600090E0C89FB001C99F700DD89F700D1124EA
:1010700080E090E00E9493329B01AC01C701B60171
:101080000E9419310E94D0320E946732DC01CB01EC
:101090000E94AA2710C00E94181421978091BC05B5
:1010A000882359F48FEF90E7A2E081509040A04050
:1010B000E1F700C00000209771F7DF91CF91FF901A
:1010C000EF90DF90CF9008954F925F926F927F9252
:1010D0008F92AF92BF92CF92DF92EF92FF920F93D7
:1010E0001F93CF93DF9300D000D0CDB7DEB785E05C
:1010F0008093BD0580916B00817F80936B000E947F
:10110000B42A0E9418148091BC05882309F070C08D
:101110008CE0EFEBF5E0DF011D928A95E9F70E9484
:10112000F4271092BD058091E506982F85FF02C037
:1011300061E001C06FEF96FF02C001E001C00FEF58
:1011400087FF02C011E001C01FEFC090F006D090F1
:10115000F106E090F206F090F306772767FD7095B0
:10116000872F972F0E949532A70196010E94C834BD
:1011700069837A838B839C83602F772767FD7095C3
:10118000872F972F0E949532A70196010E94C8349D
:101190002B013C01612F772767FD7095872F972FD3
:1011A0000E949532A70196010E94C8347B018C01F0
:1011B000A090EA06B090EB06C090EC06D090ED0649
:1011C00069817A818B819C81A301920188240E948C
:1011D000FD030E941F1A0E94C6210E94F4278091DD
:1011E000E40683FF05C080916B008E6080936B00E6
:1011F0000F900F900F900F90DF91CF911F910F9153
:10120000FF90EF90DF90CF90BF90AF908F907F9046
:101210006F905F904F9008958091BE0584FD15C03A
:101220008091BE0580618093BE050E949F120E943E
:10123000C5128091BD058350833038F48091BE057E
:1012400080628093BE050E94B61608956CEC75E02E
:1012500085E3FB0111928A95E9F78091CF06909181
:10126000D006A091D106B091D2068093D405909378
:10127000D505A093D605B093D70581E08093E60508
:1012800092E09093E7058093D00580E0635E7F4F06
:101290000E94071C882319F48AE00E94732C089589
:1012A0008F929F92AF92BF92EF92FF920F931F93F4
:1012B00049015A010E9495322091C1063091C2061F
:1012C0004091C3065091C4060E94FA31DC01CB0163
:1012D0008093D8059093D905A093DA05B093DB05E8
:1012E000C501B4010E9495322091C5063091C60611
:1012F0004091C7065091C8060E94FA31DC01CB012B
:101300008093DC059093DD05A093DE05B093DF05A7
:10131000C801B7010E9495322091C9063091CA06D2
:101320004091CB065091CC060E94FA31DC01CB01F2
:101330008093E0059093E105A093E205B093E30567
:101340001F910F91FF90EF90BF90AF909F908F9063
:1013500008952F923F924F925F926F927F928F9259
:101360009F92AF92BF92CF92DF92EF92FF920F9334
:101370001F93CF93DF93CDB7DEB7C654D0400FB6DF
:10138000F894DEBF0FBECDBF27969FAF8EAF2797D5
:101390008091BD05863011F40C94431219828CE0C3
:1013A000FE01BA96DF01282F1D922A95E9F7FE016A
:1013B0007E96DF011D928A95E9F71092CC054424B0
:1013C00025961FAE25971CAE1BAEBB24BA9443E0F6
:1013D000A42E52E0852E01E065E0962E71E0272EC6
:1013E000312CA4E07A2EB7C18E319105C1F18F3135
:1013F0009105D4F48431910584F4813191059CF5F3
:101400008430910561F1853091051CF497FF29C066
:1014100034C08A30910589F522C0863191054CF19E
:101420008C31910551F51BC08C3591058CF48A35B2
:101430009105DCF48C3391053CF486339105DCF4A2
:1014400085339105D1F40BC080359105B1F409C005
:101450008C35910521F08F3591057CF408C011E0A1
:101460000DC012E00BC013E009C014E007C016E085
:1014700005C017E003C019E001C010E085319105F7
:1014800009F493C086319105A4F58430910509F4DF
:1014900065C085309105A4F48130910509F464C0DC
:1014A0008230910524F4009709F45BC031C1823089
:1014B000910509F45CC08330910509F029C15AC037
:1014C0008231910509F460C0833191054CF48A3072
:1014D000910509F420C18131910509F019C14DC070
:1014E0008331910509F457C08431910509F010C189
:1014F00059C08035910509F494C081359105ACF44B
:101500008533910509F484C0863391054CF48C3100
:10151000910509F44DC08E31910509F0F9C048C01C
:101520008C3391050CF0F4C078C08C35910509F42A
:1015300081C08D3591054CF48A35910509F474C04C
:101540008B35910509F0E4C072C08D35910509F421
:101550008CC08E35910509F0DBC08AC044244394C9
:10156000E2C01092CD05DFC00093CD05DCC08092B3
:10157000CD05D9C0A092CD05D6C01092E505009347
:10158000E6058092E705CFC08092E5051092E6055A
:101590000093E705C8C00093E5058092E605109228
:1015A000E705C1C00093CF05BEC01092CF05BBC0F8
:1015B000C701B60120E030E040E251E40E94C834A7
:1015C0000E9496350E946232DC01CB01B1E0893184
:1015D0009B0709F4A3C0E1E08A319E0734F4F1E0EF
:1015E00088319F0709F094C00AC021E08C3292072D
:1015F00049F031E08D32930709F08AC006C033E02C
:10160000432E91C025E0422E8EC096E0492E8BC01D
:1016100041E025964FAF259786C086538093E80515
:1016200082C07092CD057FC00093D0057CC010921F
:10163000D00579C0C701B60120E030E040E251E4B6
:101640000E94C8340E9496350E946232DC01CB01B0
:1016500053E08839950731F063E08939960709F03E
:1016600057C05FC087E0482E5EC00093CE055BC0C8
:101670001092CE0558C08630910534F48330910520
:1016800044F497FF04C007C08E31910521F415E0A2
:1016900003C018E001C010E08430910569F1853085
:1016A000910584F481309105F1F1823091051CF4AB
:1016B0000097C9F02DC082309105C1F083309105AB
:1016C00039F517C088309105E9F08930910524F487
:1016D00085309105E9F413C089309105B1F08E3160
:1016E0009105B1F403C00093D1051DC08092D105CE
:1016F0001AC00093D20517C0B092D20514C0109240
:10170000D20511C00093D3050EC01092D3050BC0B3
:10171000A092CC0508C0B2E04B2E05C0A4E04A2E32
:1017200002C0F8E04F2E1123B1F0C10102C0880FB2
:10173000991F1A95E2F72BAD3CAD282339232115CB
:10174000310519F09092CC0506C0ABADBCADA82B0D
:10175000B92BBCAFABAF89812796EEADFFAD279714
:10176000E80FF11D10811123D1F0912F91549A317E
:1017700010F082E012C08F5F898327968EAD9FADF7
:101780002797BE016F5F7F4FAE014E5F5F4F0E9494
:10179000DE26009709F094C681E08093CC05809105
:1017A000CC05882309F072C61982DD2420E030E0E0
:1017B000A9012EAB3FAB48AF59AFBA01A90124969E
:1017C0004CAF5DAF6EAF7FAF24971DAE1EAE50E83D
:1017D0005FAF6FEB6AAFCC2456E0752E63E0662EE8
:1017E00027962EAC3FAC2797EFEB5E2E50C11A81A7
:1017F0000B81FC80ED80A8019701852F942FA32FEA
:10180000B22FBC01CD0120E030E0A9010E94F331EC
:10181000181614F07092CC058091CE058823C1F083
:101820008091CF05882309F42EC1A8019701852F47
:10183000902FA32FBE2DBC01CD0123E333E34BEC4E
:1018400051E40E94C8346DAF7EAF8FAF592E1FC1D7
:101850008091CF05882391F0A8019701852F902FC3
:10186000A32FBE2DBC01CD0123E333E34BEC51E4A8
:101870000E94C834162F072FF82EE92EA8019701D1
:10188000852F902FA32FBE2D8093D4059093D5053F
:10189000A093D605B093D705FAC0112707FD109580
:1018A000095410406A817B818C819D812091CF05F4
:1018B000222371F0382F292F862F972FA32FB22F95
:1018C000BC01CD0123E333E34BEC51E40E94C83467
:1018D000F801EE0FFF1FEE0FFF1FA1E0B0E0AC0F0D
:1018E000BD1FEA0FFB1F382F292F862F972FA32FFD
:1018F000B22F858F968FA78FB0A3C9C06A817B81D5
:101900008C819D810E9496350E946732D62EBFC081
:101910002A813B814C815D8124962CAF3DAF4EAF37
:101920005FAF2497B4C04A815B816C817D814EABEF
:101930005FAB68AF79AF8091CF05882309F4A7C06A
:10194000CB01BA0123E333E34BEC51E40E94C834EA
:10195000462F572F682F792F4EAB5FAB68AF79AF0B
:1019600096C06A817B818C819D8120E030E0A90155
:101970000E94F33187FF8BC07092CC0588C08A80AB
:101980009B80AC80BD80C501B40120E030E0A9019E
:101990000E94F33187FF02C07092CC05C501B401EB
:1019A0000E9496350E9467326093E40570C06A8198
:1019B0007B818C819D812091CF05222371F0382F6E
:1019C000292F862F972FA32FB22FBC01CD0123E300
:1019D00033E34BEC51E40E94C834382F292F862F73
:1019E000972FA32FB22F8AA79BA7ACA7BDA751E023
:1019F000C52A4DC06A817B818C819D812091CF0554
:101A0000222371F0382F292F862F972FA32FB22F43
:101A1000BC01CD0123E333E34BEC51E40E94C83415
:101A2000382F292F862F972FA32FB22F8EA79FA74E
:101A3000A8ABB9AB62E0C62A2AC06A817B818C81DF
:101A40009D812091CF05222371F0382F292F862FD9
:101A5000972FA32FB22FBC01CD0123E333E34BEC2F
:101A600051E40E94C834382F292F862F972FA32F97
:101A7000B22F8AAB9BABACABBDAB74E0C72A07C03F
:101A80006092CC0504C01DAF0EAFFFAE5E2C898105
:101A9000F101E80FF11D00810023D1F0902F915446
:101AA0009A3118F05AAE82E010C08F5F8983C1016D
:101AB000BE016F5F7F4FAE014E5F5F4F0E94DE261B
:101AC000009709F011C55AAE81E08093CC0501C0A2
:101AD0005AAE8091CC05882309F0D8C48091BD0509
:101AE000873041F08091D2050E94A8128091D305E1
:101AF0000E94CD128BAD9CAD91FF13C08091E80583
:101B0000BE016E5E7F4F0E94071C882309F4BDC48E
:101B1000A9EEB5E0FE0172968CE001900D92815025
:101B2000E1F794E0491609F465C1941558F0A2E074
:101B30004A1699F1A41508F4BEC0B1E04B1609F09D
:101B4000B0C110C0E6E04E1609F454C14E1608F4B8
:101B5000B2C0F7E04F1609F458C128E0421609F068
:101B6000A0C196C124966CAD7DAD8EAD9FAD24977E
:101B700020E030E0A9010E94F33187FD48C1809147
:101B8000BD05873009F48DC124966CAD7DAD8EAD59
:101B90009FAD24970E940E0884C124966CAD7DAD44
:101BA0008EAD9FAD24970E94963532E0D31619F082
:101BB00044E1D41639F40E9462322B013C016730B3
:101BC000710520F083E08093CC056AC1CC2021F41C
:101BD00062E0D61609F41BC14114510421F00894A7
:101BE0004108510803C04090E8055524742C842D09
:101BF000BE016E5E7F4F0E94071C882309F445C416
:101C000028ED822E25E0922E8E01065D1F4F32E1D7
:101C1000E32EF12CEC0EFD1EAA24BB242C2C332425
:101C2000C1010A2C02C0959587950A94E2F780FFBE
:101C30001CC074E1D71679F4D4016D917D918D911A
:101C40009C91F80120813181428153810E94193198
:101C5000DC01CB0105C0F80180819181A281B381B3
:101C6000F70180839183A283B3830894A11CB11CE4
:101C700024E030E0820E931E0C5F1F4FE20EF31E35
:101C800033E0A316B10461F6872DBE016E5E7F4F6F
:101C90000E94341B8091E80590E08415950509F0B9
:101CA000FFC0A9EEB5E0FE0172968CE001900D92A6
:101CB0008150E1F7F5C0CC2009F46DC0D090D0057B
:101CC0008E01065D1F4F98EDE92E95E0F92EAA24AE
:101CD000BB248C2C9924C4010A2C02C095958795AD
:101CE0000A94E2F780FF28C0DD20B9F0D7015196B1
:101CF0006D917D918D919C9154975D962D913D9123
:101D00004D915C9190970E941A319B01AC01F801B2
:101D100060817181828193810AC0D8016D917D912A
:101D20008D919C91F70120813181428153810E94E4
:101D30001A31DC01CB0105C0F70180819181A281BC
:101D4000B381F80180839183A283B3830894A11C9B
:101D5000B11C0C5F1F4F24E030E0E20EF31E33E0B5
:101D6000A316B10409F0B7CF6AA57BA58CA59DA5E4
:101D70002EA53FA548A959A9EAA8FBA80CA91DA909
:101D8000A090D306B090D406C090D506D090D606C9
:101D900088240E94FD0345E0441611F487E001C049
:101DA00086E0BE016A5F7F4F0E94071C882309F40A
:101DB0006CC36E817F81888599852A853B854C859A
:101DC0005D85EE84FF8408891989A090D306B090C0
:101DD000D406C090D506D090D60688240E94FD0374
:101DE000A8EDB5E0FE0136968CE001900D92815091
:101DF000E1F756C056E0451611F487E001C086E0D1
:101E000068ED75E00E94341B4CC0CC2021F486E0C4
:101E10008093CC0546C008ED15E08AE2A82EB12CCF
:101E2000AC0EBD1EEE24FF24DD24C6010E2C02C024
:101E3000959587950A94E2F780FF1CC0D8016D91B3
:101E40007D918D919C91139751962D913D914D913E
:101E50005C9154970E941931F501208131814281B2
:101E600053810E941931DC01CB01F801858F968FD7
:101E7000A78FB0A30894E11CF11C0C5F1F4F24E056
:101E800030E0A20EB31E33E0E316F10471F608C091
:101E90008CE0E5EFF5E0DF011D928A95E9F701C0DE
:101EA000CC24BBADB2FD03C0CC2009F4D8C28091D4
:101EB000CE058823C1F05DAD4EAD3FAD2AAD852F77
:101EC000942FA32FB22FBC01CD0120E030E0A90157
:101ED0000E94F33187FF07C08091CD05843019F04F
:101EE00086E08093CC052596EFAD2597EE2339F05B
:101EF0008091CD05823018F086E08093CC058091EA
:101F0000CC05882309F0C2C2D090D0058E01065DB1
:101F10001F4FB8EDEB2EB5E0FB2EAA24BB248C2C72
:101F20009924C4010A2C02C0959587950A94E2F77A
:101F300080FF2DC02596FFAD2597FF2391F5DD206D
:101F4000B9F0D70151966D917D918D919C915497E7
:101F50005D962D913D914D915C9190970E941A3123
:101F60009B01AC01F80160817181828193810AC07B
:101F7000D8016D917D918D919C91F70120813181E6
:101F8000428153810E941A31DC01CB0105C0F70167
:101F900080819181A281B381F80180839183A283A2
:101FA000B3830894A11CB11C0C5F1F4F24E030E0E8
:101FB000E20EF31E33E0A316B10409F0B2CF809015
:101FC000CD0543E0481558F052E0851608F052C0A0
:101FD000882069F061E0861609F034C221C074E0FF
:101FE000871609F02FC2CC2009F42CC290C0CC2057
:101FF00009F48DC06AA57BA58CA59DA52EA53FA53E
:1020000048A959A9EAA8FBA80CA91DA9A090D30624
:10201000B090D406C090D506D090D606882427C0AC
:10202000CC2009F474C06AA57BA58CA59DA52EA51E
:102030003FA548A959A9EAA8FBA80CA91DA9809009
:10204000CE05882061F4A091D405ADAFB091D5053F
:10205000BEAFE091D605EFAFF091D705FAAFEDAD89
:10206000FEADAFADBAAD2F013D01630152010E943B
:10207000FD03E8C12090E70581E090E0022C02C05A
:10208000880F991F0A94E2F780958C2109F43FC0CC
:102090006EA97FA988AD99AD20E030E0A9010E942A
:1020A000F331E091E505F0E08823A9F5EE0FFF1F7D
:1020B000EE0FFF1F21E030E02C0F3D1FE20FF31F5A
:1020C000C58CD68CE78CF0A0C701B60120E030E0CB
:1020D000A9010E94F331882309F05CC1E091E60573
:1020E000F0E0EE0FFF1FEE0FFF1F41E050E04C0F3E
:1020F0005D1FE40FF51F658D768D878D90A120E023
:1021000030E0A9010E94F331882309F043C186E041
:102110008093CC0597C1BF01660F771F660F771FAD
:102120007CAF6BAFA1E0B0E0AC0FBD1FA60FB71F37
:10213000FB01E852FA4F99966D917D918D919C919A
:102140009C9720813181428153810E941931762EE2
:10215000672E582E392EE091E605F0E0CF01880F6A
:10216000991F880F991F22969FAF8EAF2297A1E0EB
:10217000B0E0AC0FBD1FA80FB91FFC01E852FA4F29
:1021800099966D917D918D919C919C972081318143
:10219000428153810E941931A62E472EB82E992EC6
:1021A0008CE0FE017E96DF011D928A95E9F76EA90B
:1021B0007FA988AD99AD20E030E040E850E40E946E
:1021C000C8342EA93FA948AD59AD0E94C8346B014F
:1021D0007C01A301352D852F942FA52DB32DBC0196
:1021E000CD01F3010F2F1E2F232F3B2FA9019801A3
:1021F0000E94C8349B01AC01C701B6010E9419318D
:102200006B017C013B2D8A2D942DAB2DB92DBC018A
:10221000CD010A2D142D232F3B2FA90198010E94D7
:10222000C8349B01AC01C701B6010E941931162FB9
:10223000072FF82EE92EA8019701852F942FA32FA1
:10224000B22FBC01CD0120E030E0A9010E94F331A2
:1022500087FF04C084E08093CC0518C1A8019701D2
:10226000852F942FA32FB22FBC01CD010E9455358D
:102270006B017C01A301852F942FA52DB32DBC01EB
:10228000CD010A2D142D2B2D392DA90198010E9465
:1022900003349B01AC01C701B60190580E94FA318A
:1022A000C62ED72EE82EF92EB3E08B1621F4F7FABE
:1022B000F094F7F8F0946EA97FA988AD99AD20E06D
:1022C00030E0A9010E94F33187FF0DC0F7FAF094C6
:1022D000F7F8F0942EA93FA948AD59AD50582EAB50
:1022E0003FAB48AF59AF01E010E00C0F1D1F4BADE5
:1022F0005CAD040F151F8A2D942DAB2DB92DBC019B
:10230000CD01A70196010E94C8349B01AC01F301E5
:102310008F2F962DA52DB32DBC01CD010E94193113
:1023200020E030E040E05FE30E94C834DC01CB01F4
:10233000F801858F968FA78FB0A301E010E00C0FF6
:102340001D1F22962EAD3FAD2297020F131FA30132
:10235000852F962DA52DB32DBC01CD01A70196018A
:102360000E94C8349B01AC018A2D942DAB2DB92D50
:10237000BC01CD010E941A3120E030E040E05FE373
:102380000E94C834DC01CB01F801858F968FA78F9E
:10239000B0A315C0E091E605F0E0EE0FFF1FEE0FD1
:1023A000FF1FEC0FFD1F268D378D40A151A1C701E6
:1023B000B6010E9403346EAB7FAB88AF99AF81E06A
:1023C000F2E08F1280E02091E5050091E605809013
:1023D000CE05882061F43091D4053DAF4091D505FC
:1023E0004EAF5091D6055FAF6091D7056AAF00D070
:1023F00000D00F924EA95FA968AD79ADADB7BEB759
:1024000011964D935D936D937C93149715968C93D1
:1024100088ED95E0BE01665D7F4FAE01425E5F4F85
:10242000E22CADADFEADEFAD3AAD4A2E5F2E6E2E75
:10243000732E630152010E944E040F900F900F9073
:102440000F900F908091CC05882301F5A8EDB5E0A1
:10245000FE01BA968CE001900D928150E1F78091D7
:10246000D105882369F00E94C6211092CB05809186
:10247000D105823019F40E940C0902C01092D105D6
:102480008091CC0503C08CE001C08AE0CA5BDF4FBD
:102490000FB6F894DEBF0FBECDBFDF91CF911F9175
:1024A0000F91FF90EF90DF90CF90BF90AF909F90F3
:1024B0008F907F906F905F904F903F902F900895F6
:1024C000CA80DB80EC80FD80C701B6010E94963592
:1024D0000E946232DC01CB01173411F40C94F40930
:1024E0001D3409F038C9C7C80F3484F40D340CF01A
:1024F000CECA0C340CF002CA09340CF0CEC9063432
:1025000009F475C9073409F0BBCAC1CA043509F416
:1025100036CA053554F4023509F405CA03350CF002
:1025200020CA003509F0ACCAF3C9093509F462CAFA
:102530000A3509F482CA083509F0A2CA38CA2C98AB
:10254000089510920001249A259A0E949F120895DE
:10255000CF93C82F482F552747FD50952091000154
:1025600030E04217530779F00E94C621CC2339F09E
:102570001C1614F42D9801C02D9A2C9A02C00E94AA
:102580009F12C0930001CF9108954398089510922F
:1025900001013B9A0E94C5120895CF93C82F8091E4
:1025A0000101C81751F00E94C621C13011F4439AAD
:1025B00002C00E94C512C0930101CF910895E0ECC2
:1025C000F0E080818D7F80831092C50087E6809344
:1025D000C400E1ECF0E080818061808380818860CC
:1025E00080838081806880830895E09103019E2F1D
:1025F0009F5F903439F405C02091BE0524FF02C0CE
:10260000089590E0209102019217B1F3F0E0EF57A6
:10261000F94F8083909303018091C1008062809381
:10262000C10008951F920F920FB60F9211248F933D
:102630009F93EF93FF9380910201E82FF0E0EF5713
:10264000F94F90819093C6008F5F803409F480E049
:102650008093020190910301891729F48091C100B0
:102660008F7D8093C100FF91EF919F918F910F908B
:102670000FBE0F901F901895909104018091050155
:10268000891761F0E92FF0E0EF5FF94F80819F5FDC
:10269000903809F490E09093040108958FEF089525
:1026A0001F920F920FB60F9211242F933F934F93C7
:1026B0005F936F937F938F939F93AF93BF93EF93AA
:1026C000FF938091C6008132A1F0823218F48831E4
:1026D000B9F413C08F3319F08E3791F404C0809190
:1026E000BE05816003C08091BE0582608093BE05F7
:1026F00018C08091BE058860F9CF0E940C0911C0F6
:10270000E09105019E2F9F5F903809F490E02091A1
:102710000401921731F0F0E0EF5FF94F808390935E
:102720000501FF91EF91BF91AF919F918F917F91A3
:102730006F915F914F913F912F910F900FBE0F902E
:102740001F901895809105018093040108951092BF
:102750000601109207010E94132D87B1887F87B967
:1027600088B1876088B9ECE6F0E08081876080837B
:10277000E8E6F0E08081826080830895CF93C0E036
:102780008C2F68E071E00E94E91B882311F48AE035
:102790000CC080910801882351F088E091E00E94EC
:1027A0000C2B88E091E00E94A9090E94732CCF5F56
:1027B000C23031F7CF9108951F920F920FB60F924A
:1027C00011242F933F934F935F936F937F938F9336
:1027D0009F93AF93BF93EF93FF9386B190E0809563
:1027E000909587709070009791F0309903C00E9487
:1027F0000C090DC0319904C08091BE05886005C0E8
:10280000329905C08091BE0582608093BE05FF911C
:10281000EF91BF91AF919F918F917F916F915F9158
:102820004F913F912F910F900FBE0F901F901895D1
:10283000CF93DF938091BE05882309F456C0C091E1
:10284000BE05D0E0CE01807690700097E9F086E07A
:102850008093BD05C6FF10C08FEF0E94CE2C81E093
:102860000E94E92C8091BE058F7E8093BE058091E9
:10287000BE0584FFFCCF03C08EEF0E94CE2C80915A
:10288000BE058F798093BE05C4FF04C081E08093AC
:10289000BC052BC0C0FF07C00E940A308091BE0556
:1028A0008E7F8093BE05C3FF07C00E94291A8091C6
:1028B000BE05877F8093BE05C2FF07C00E94331A02
:1028C0008091BE058B7F8093BE05C1FF0EC00E9424
:1028D0001F1A8091E40681FF03C081E08093CB053D
:1028E0008091BE058D7F8093BE05DF91CF910895C5
:1028F0000F931F93CF93DF93CDB7DEB72A970FB611
:10290000F894DEBF0FBECDBF8C01FC018081843204
:1029100009F006C181E089838181873481F188349F
:1029200074F48432C1F0853234F4882389F0833220
:1029300009F091C01AC0833409F08DC02AC08E34CA
:1029400009F467C08835F1F1883409F084C04CC0BF
:102950000E94182DEEC082E08983F80182818823CD
:1029600009F0EBC00E941D2DE4C082E08983F801CC
:102970008281882309F0E1C00E94732EDAC082E0D0
:102980008983F8018281882309F0D7C00E94252F0E
:10299000D0C082E08983F8018281882309F0CDC00C
:1029A0008091BD05873021F40E940C0985E007C0A5
:1029B000882309F0BCC087E08093BD0584E00E94B5
:1029C000E92CB7C082E08983F8018281882309F06D
:1029D000B4C08091BD05863009F0ABC083E00E9491
:1029E000E92C1092BD05A5C08091E40684FF9DC02E
:1029F0008091BD05882319F0863009F098C00E94A7
:102A000064088091BC05882309F093C00E94BE131E
:102A100090C082E08983F80182818823F1F4B801B3
:102A20000E94E91B882329F080E0B8010E94EC2F66
:102A300003C08AE00E94732C81E0B8010E94E91B68
:102A4000882329F081E0B8010E94EC2F72C08AE04F
:102A50000E94732C6EC020E001C021E0C801BE01BD
:102A60006F5F7F4FAE014A5F5F4F2A870E94DE266D
:102A70002A85009709F45FC08981F801E80FF11DEC
:102A800090818F5F89839D3309F057C0222339F1EC
:102A9000282F90E0E22FF0E0D801AE0FBF1F3C914D
:102AA000E81BF90BE00FF11F30832F5F3C913323BC
:102AB00089F72983C8010E94A909282F8823F1F5E5
:102AC0006E817F81888599852A870E9496350E942C
:102AD0006732862FB8010E94291B2A852FC0C801A2
:102AE000BE016F5F7F4FAE014E5F5F4F0E94DE26DB
:102AF000009709F18981F801E80FF11D8081882391
:102B0000E1F46E817F81888599850E946232DC01C3
:102B1000CB014A815B816C817D810E94551C03C081
:102B2000C8010E94A909282F09C027E007C02BE08F
:102B300005C020E003C021E001C023E0822F2A96D7
:102B40000FB6F894DEBF0FBECDBFDF91CF911F91BE
:102B50000F910895CF93C1E043C08A3011F08D30BA
:102B6000A9F40E9418148091BC058823F1F5E09126
:102B70000601EE2349F0F0E0E85FFE4F108288E0A6
:102B800091E00E94781417C080E015C09091070171
:102B9000992319F0893221F512C0813208F18F3260
:102BA000F9F0883219F4C09307011AC09091060118
:102BB000953440F08DE00E94732C10920601109223
:102BC00007010EC0482F4156292F30E0285F3E4FA5
:102BD0004A3108F48052F90180839F5F9093060187
:102BE0000E943C138F3F09F0B8CFCF9108950F9307
:102BF0001F939B01AC01203283E0380780E0480737
:102C000080E0580720F420E233E040E050E060E04C
:102C100070E788E399E30E94D43589019A01003076
:102C200080E0180781E0280780E0380728F4C80111
:102C3000A0E0B0E031E02DC0003080E0180788E06F
:102C4000280780E0380798F443E0369527951795D4
:102C500007954A95D1F7C801A0E0B0E053E0880F8E
:102C6000991FAA1FBB1F5A95D1F732E012C086E008
:102C700036952795179507958A95D1F7C801A0E055
:102C8000B0E026E0880F991FAA1FBB1F2A95D1F735
:102C900033E020918100287F232B20938100109323
:102CA0008900009388008093670190936801A09346
:102CB0006901B0936A011F910F9108958091670196
:102CC00090916801A0916901B0916A0140916B01F6
:102CD00050916C0160916D0170916E01840F951F90
:102CE000A61FB71F80936B0190936C01A0936D0199
:102CF000B0936E01813022EE920724E0A20720E01B
:102D0000B20770F08050924EA440B04080936B01A7
:102D100090936C01A0936D01B0936E0181E00895D2
:102D200080E008958091E40682FF02C0289A01C0E5
:102D300028988091BD058330C1F48091D706809397
:102D40004F018091CE0690E0A0E0B0E00297A1098B
:102D5000B109880F991FAA1FBB1F8195809350014D
:102D600080916F00826080936F00089580916F0062
:102D70008D7F80936F008091F4068F3F21F49091B6
:102D8000BE0595FF0AC090E00E94AA278091E40644
:102D900082FF02C028980895289A08951F920F92E2
:102DA0000FB60F9211240F931F932F933F934F93BE
:102DB0005F936F937F938F939F93AF93BF93CF93C3
:102DC000DF93EF93FF9380914E01882309F0C9C2EE
:102DD0009BB120914F01822F807E9F71892B8BB9EF
:102DE0008BB1837E822B8BB9809150018093B2008E
:102DF00082E08093B10081E080934E0178948091CD
:102E0000510190915201009709F071C00E94A621D2
:102E1000EC019093520180935101009709F460C036
:102E20008091BD058330D1F46BA17CA18DA19EA1C1
:102E300060936F01709370018093710190937201A0
:102E40000E94F71580E091E7A2E0B0E080936B016B
:102E500090936C01A0936D01B0936E014BA55CA59E
:102E60006DA57EA5DB01CA01B595A79597958795B8
:102E7000840F951FA61FB71F809373019093740151
:102E8000A0937501B09376014D855E856F85788935
:102E9000DB01CA01B595A79597958795B095A09543
:102EA000909581959F4FAF4FBF4FE3E5F1E0809341
:102EB000530190935401A0935501B093560184831C
:102EC0009583A683B78380879187A287B38744873A
:102ED000558766877787108A118A128A138A07C0F6
:102EE0000E94B6168091BE0584608093BE05C09195
:102EF0005101D0915201209709F42AC228812093D0
:102F00004F018091530190915401A0915501B091CE
:102F1000560149815A816B817C81840F951FA61FC0
:102F2000B71F8093530190935401A0935501B09320
:102F30005601181619061A061B0684F524602093FC
:102F40004F0140915F01509160016091610170916A
:102F50006201841B950BA60BB70B809353019093D2
:102F60005401A0935501B09356018091BF059091F3
:102F7000C005A091C105B091C20525FF04C001970D
:102F8000A109B10903C00196A11DB11D8093BF0520
:102F90009093C005A093C105B093C20580915701DD
:102FA00090915801A0915901B0915A014D815E81D3
:102FB0006F817885840F951FA61FB71F80935701D7
:102FC00090935801A0935901B0935A01181619060D
:102FD0001A061B0694F520914F01286020934F019B
:102FE00040915F01509160016091610170916201B7
:102FF000841B950BA60BB70B809357019093580138
:10300000A0935901B0935A018091C3059091C405D2
:10301000A091C505B091C60526FF04C00197A1097E
:10302000B10903C00196A11DB11D8093C305909302
:10303000C405A093C505B093C60580915B0190912E
:103040005C01A0915D01B0915E0149855A856B8557
:103050007C85840F951FA61FB71F80935B019093FB
:103060005C01A0935D01B0935E01181619061A0663
:103070001B0694F520914F01206120934F01409150
:103080005F01509160016091610170916201841B48
:10309000950BA60BB70B80935B0190935C01A093FB
:1030A0005D01B0935E018091C7059091C805A09124
:1030B000C905B091CA0527FF04C00197A109B1094C
:1030C00003C00196A11DB11D8093C7059093C8054B
:1030D000A093C905B093CA058091630190916401E2
:1030E000A0916501B09166010196A11DB11D80936B
:1030F000630190936401A0936501B09366014D85CF
:103100005E856F85788984179507A607B70708F04D
:1031100019C12091BD05243079F50E945E168823DF
:1031200009F416C140916F015091700160917101D5
:10313000709172018BA59CA5ADA5BEA584179507BE
:10314000A607B70740F00E94B6168091BE058460BE
:103150008093BE05FDC08A019B01081B190B2A0B39
:103160003B0BC901B80100936F01109370012093CC
:103170007101309372013FC04FA558A969A97AA97E
:1031800084179507A607B707C8F50E945E1688231F
:1031900009F4DEC08BA59CA5ADA5BEA540916F012D
:1031A000509170016091710170917201840F951FAF
:1031B000A61FB71F80936F0190937001A0937101B8
:1031C000B09372014FA958AD69AD7AAD84179507D8
:1031D000A607B70740F040936F01509370016093CA
:1031E00071017093720160916F0170917001809113
:1031F0007101909172010E94F715AAC04BA95CA9B8
:103200006DA97EA984179507A607B70708F47EC0A5
:1032100084179507A607B70779F540916F0150917C
:10322000700160917101709172018FA998ADA9AD83
:10323000BAAD481759076A077B0729F480E091E780
:10324000A2E0B0E010C080E092EEA4E0B0E04091D7
:103250006B0150916C0160916D0170916E01841B46
:10326000950BA60BB70B80936B0190936C01A09309
:103270006D01B0936E016CC00E945E16882309F444
:1032800067C080916F0190917001A0917101B09120
:1032900072014091730150917401609175017091B8
:1032A0007601481759076A077B0748F44BA55CA5C8
:1032B0006DA57EA5841B950BA60BB70B04C0B69518
:1032C000A7959795879580936F0190937001A09330
:1032D0007101B09372018FA198A5A9A5BAA54091DB
:1032E0006F015091700160917101709172014817E6
:1032F00059076A077B0708F076CF80936F01909398
:103300007001A0937101B09372016DCF8FA998AD38
:10331000A9ADBAAD40916F015091700160917101FA
:1033200070917201481759076A077B0789F08093EB
:103330006F0190937001A0937101B0937201BC0171
:10334000CD0159CF10925201109251010E94972144
:1033500080914F019091D706892780934F01109259
:103360004E01FF91EF91DF91CF91BF91AF919F916E
:103370008F917F916F915F914F913F912F911F910D
:103380000F910F900FBE0F901F9018951F920F92E4
:103390000FB60F9211248F939F939BB18091D70604
:1033A0008C71937E892B8BB91092B1009F918F9174
:1033B0000F900FBE0F901F90189584E2E3E5F1E0A7
:1033C000DF011D928A95E9F760E273E080E090E00A
:1033D0000E94F715109252011092510110924E0165
:1033E00008958AB18C6F8AB98BB183709091D7069A
:1033F000892B8BB9209AE1E8F0E080818F7E808371
:10340000808188608083E0E8F0E080818D7F808328
:1034100080818E7F808380818F73808380818F7C89
:1034200080831092B0001092B100E0E7F0E080815C
:10343000816080830E9492160E94B6160895809142
:10344000BD05823029F483E08093BD050E94921669
:1034500008958091BD05833029F484E08093BD05F3
:103460001092CB050895E0915101F09152013097EF
:10347000C9F185859685A785B089409163015091F2
:1034800064016091650170916601841B950BA60B28
:10349000B70BBC01CD010E94872610926F011092DC
:1034A0007001109271011092720160E070E0CB0126
:1034B0000E94F71580E091E7A2E0B0E080936B01F5
:1034C00090936C01A0936D01B0936E011092630113
:1034D00010926401109265011092660182E080935F
:1034E000BD0508951092BD050895F999FECF92BDCE
:1034F00081BD81E08FBB80B50895F894F999FECF26
:1035000092BD81BD81E08FBB40B54627842F9927AE
:1035100087FD9095262F30E082239323009739F082
:103520006F3F19F060BD84E006C084E104C044230D
:1035300021F060BD84E28FBBF99A789408958F9250
:103540009F92AF92BF92CF92DF92EF92FF921F9322
:10355000CF93DF934C015B016A017A019C0110E07B
:103560001BC0112349F4812F992787FD9095882747
:10357000990F881F992702C081E090E0F5016191C1
:103580005F01162F180FE9012196C9010E947D1ACB
:103590000894E108F1089E01E114F10411F7C60155
:1035A000880D991D612F0E947D1ADF91CF911F9187
:1035B000FF90EF90DF90CF90BF90AF909F908F9053
:1035C00008958F929F92AF92BF92CF92DF92EF9227
:1035D000FF920F931F93CF935C016B017A018A01D5
:1035E000CB01C0E01BC04C010894811C911C0E94BF
:1035F000751ACC2349F42C2F332727FD3095222729
:10360000330F221F332702C021E030E0C82FC20F42
:10361000F50181935F0101501040C40101151105AE
:1036200011F7C7018C0D9D1D0E94751A21E030E035
:10363000C81711F020E030E0C901CF911F910F9120
:10364000FF90EF90DF90CF90BF90AF909F908F90C2
:10365000089597E4899FC001112480509D4F46E44E
:1036600050E00E949F1A08959DE0899FC001112497
:1036700080509E4F4CE050E00E949F1A089580E0D9
:1036800090E065E00E947D1A81E090E061EC76E0D8
:1036900046E350E00E949F1A0895882309F45EC013
:1036A00080E090E0A0E2B2E48093C1069093C2066D
:1036B000A093C306B093C4068093C5069093C60634
:1036C000A093C706B093C80680E090E0A0EAB3E4F8
:1036D0008093C9069093CA06A093CB06B093CC06FC
:1036E0008EE18093CE0680E090E0AAEFB3E4809371
:1036F000CF069093D006A093D106B093D2068093C4
:10370000D3069093D406A093D506B093D60680E056
:1037100098ECAFEAB7E48093DC069093DD06A093C3
:10372000DE06B093DF068DEC9CECACECBDE3809341
:10373000D8069093D906A093DA06B093DB0680EC06
:103740008093D7068DEC9CECACE4BDE38093E0065F
:103750009093E106A093E206B093E30682E08093A3
:10376000E4061092E50680E090E0A8ECB1E48093D6
:10377000E6069093E706A093E806B093E90680E09A
:1037800090E0AAE7B3E48093EA069093EB06A09357
:10379000EC06B093ED0684E690E09093EF068093FC
:1037A000EE0680E090E0A0E8BFE38093F0069093FF
:1037B000F106A093F206B093F3068FEF8093F40620
:1037C00083E08093F50689E18093F6060E943F1B13
:1037D00008951F93CF93DF93182FEB0167E4869F23
:1037E000B001112460507D4FCE0146E450E00E94AC
:1037F000E11A009739F41882812FBE010E94291B1B
:1038000080E001C081E0DF91CF911F9108951F9367
:10381000CF93DF93182FD62FC72F2DE0829F9001D3
:10382000112420503E4F862F972FB9014CE050E0D5
:103830000E94E11A009771F4ED2FFC2F8CE0DF015C
:103840001D928A95E9F7812F6D2F7C2F0E94341BE2
:1038500080E001C081E0DF91CF911F91089580E069
:1038600090E00E94751A853061F481EC96E061E089
:1038700070E046E350E00E94E11A21E0009799F4DD
:1038800011C0853078F481EC96E061E070E043E2AD
:1038900050E00E94E11A009729F080E00E944D1B41
:1038A00021E001C020E0822F0895CF92DF92EF92B5
:1038B000FF92CF93DF93EC016A017B018731910581
:1038C00008F019C1FC01EC5CFF4FEE0FFF1F0590E3
:1038D000F491E02D0994CB01BA0120E030E0A90178
:1038E0000E94F33118160CF008C1CC0FDD1FCC0F6D
:1038F000DD1FCF53D94FC882D982EA82FB82F7C03D
:10390000CB01BA0120E030E040E450E40E94F33102
:1039100087FDF5C0C701B6010E942B350E946732B2
:103920006093CE06E4C04093CF065093D0066093D8
:10393000D1067093D206DBC04093D3065093D406D1
:103940006093D5067093D606D2C0CB01BA010E940F
:1039500096350E9467326093D706C9C0CB01BA0181
:103960000E942B350E9467326093F406C0C0CB01E1
:10397000BA0120E030E040E752E40E94C83420E081
:1039800030E040E752E40E94C834DC01CB01809370
:10399000DC069093DD06A093DE06B093DF06A7C099
:1039A000E894F7F8C092E006D092E106E092E206D1
:1039B000F092E3069CC04093D8065093D9066093DA
:1039C000DA067093DB0693C0CB01BA010E942B3557
:1039D0000E9467326093F6068AC0CB01BA010E944A
:1039E0002B350E9467326093F50681C0CB01BA0186
:1039F00020E030E0A9010E94F3319091E406882391
:103A000011F091600EC09E7F0CC0CB01BA0120E086
:103A100030E0A9010E94F3319091E406882321F05F
:103A200092609093E40663C09D7FFBCFCB01BA0107
:103A300020E030E0A9010E94F3319091E406882350
:103A400011F09460EECF9B7FECCFCB01BA0120E068
:103A500030E0A9010E94F3319091E406882311F02F
:103A6000986001C0977F9093E4060E94652A3FC04A
:103A7000CB01BA0120E030E0A9010E94F33190911E
:103A8000E406882311F09061CCCF9F7ECACFCB0192
:103A9000BA010E9496350E9467326093E50627C0FE
:103AA0004093E6065093E7066093E8067093E906B4
:103AB0001EC04093EA065093EB066093EC067093A9
:103AC000ED0615C0CB01BA010E942B350E9467326A
:103AD000DC01CB019093EF068093EE0608C0409383
:103AE000F0065093F1066093F2067093F3060E947D
:103AF0003F1B80E005C086E003C088E001C089E08C
:103B0000DF91CF91FF90EF90DF90CF9008951F93BA
:103B1000CF93DF93CDB7DEB72C970FB6F894DEBF07
:103B20000FBECDBF0E942F1C882341F48AE00E9463
:103B3000732C81E00E944D1B0E941D2D10E0812FEF
:103B4000BE016F5F7F4F0E94071C882319F48AE033
:103B50000E94732C1F5F183091F72C960FB6F894C3
:103B6000DEBF0FBECDBFDF91CF911F9108952F9281
:103B70003F924F925F926F927F928F929F92AF92FD
:103B8000BF92CF92DF92EF92FF920F931F93CF934A
:103B9000DF93CDB7DEB767970FB6F894DEBF0FBEE1
:103BA000CDBF9A8389834A015B0128013901DC0179
:103BB000D7966D917D918D919C91DA970E94933269
:103BC0006B017C01A50194010E94C8340E94E03180
:103BD0000E9467324B015C01E981FA8163A374A3FF
:103BE00085A396A3C701B601A30192010E94C83420
:103BF0000E94E0310E9467326F83788789879A87B5
:103C0000A981BA8197966D937D938D939C939A9792
:103C10009B966D917D918D919C919E9722E330E0D2
:103C200040E050E00E94B5350E94953220E030E03F
:103C300040E752E40E94C8340E9462326B837C8366
:103C40008D839E83C501B4010E9493324B015C01B8
:103C50006B817C818D819E810E9495326B877C87F0
:103C60008D879E87C701B601A70196010E94C834BF
:103C7000662E572E482E792EC501B401A501940158
:103C80000E94C8346F87788B898B9A8B6B857C8573
:103C90008D859E859B01AC010E941A316B8B7C8BBC
:103CA0008D8B9E8B862D952DA42DB72DBC01CD011E
:103CB000FF85E88959894A890F2F1E2F252F342F18
:103CC000A90198010E941931FB89EC895D894E890F
:103CD0000F2F1E2F252F342FA90198010E94FA3192
:103CE0000E94E0310E9462326B017C016F81788515
:103CF00089859A850E9493329B01AC010E94C83449
:103D0000362E272E8F839F8BA101382F292F852FA9
:103D1000942FA32FB22FBC01CD01062D152D242DDC
:103D2000372DA90198010E9419314B015C016B816B
:103D30007C818D819E8190958095709561957F4F56
:103D40008F4F9F4F0E9495329B01AC010E941A3108
:103D50009B01AC01C501B4010E94FA310E94D0322E
:103D6000E981FA8185849684A784B088240135018D
:103D70004C185D086E087F080E946232DC01CB019E
:103D8000A3019201281B390B4A0B5B0BDA01C90115
:103D900057FF50C0C501B4010E9495329B01AC0190
:103DA000FB89EC897D896E898F2F9E2FA72FB62FD7
:103DB000BC01CD010E94C834FF85E88959894A8930
:103DC0000F2F1E2F252F342FA90198010E94193182
:103DD000F1015F814F890F2F1E2F252F342FA9014D
:103DE00098010E941A316B017C016B857C858D8561
:103DF0009E8520E030E040E850E40E94C8349B01FA
:103E0000AC01C701B6010E94FA310E94E0310E9464
:103E100062326B017C01F7FE03C0CC24DD24760105
:103E20008C149D04AE04BF0414F47501640180E099
:103E300090E0DC01E981FA81C7A6D0AAE1AAF2AA42
:103E4000C80ED91EEA1EFB1EC3AAD4AAE5AAF6AA6A
:103E500067960FB6F894DEBF0FBECDBFDF91CF914E
:103E60001F910F91FF90EF90DF90CF90BF90AF9098
:103E70009F908F907F906F905F904F903F902F908A
:103E800008954F925F926F927F928F929F92AF921E
:103E9000BF92CF92DF92EF92FF920F931F93CF9337
:103EA000DF93EC014B01FB01D588C688B788A08C55
:103EB0002D893E894F89588DCA01B9010E94C834A5
:103EC0002B013C018091DC069091DD06A091DE067D
:103ED000B091DF069C01AD015058CA01B9010E94A2
:103EE0001A312D8D3E8D4F8D58A10E94C8349B01F3
:103EF000AC01C301B2010E9419310E945535EB019A
:103F0000F82EE92EA6019501852F942FA32FB22F0D
:103F1000BC01CD01A7010C2F1D2F252F342FA90186
:103F200098010E94F33187FF03C0CD2DDC2D750170
:103F3000A6019501852F9C2DA32FBA2DBC01CD0183
:103F4000A7010C2F1D2F252F3E2DA90198010E949E
:103F5000F331882361F097018C2F9D2FA32FBE2D65
:103F6000F401858B968BA78BB08F81E081A3DF91C5
:103F7000CF911F910F91FF90EF90DF90CF90BF9066
:103F8000AF909F908F907F906F905F904F9008952B
:103F90002F923F924F925F926F927F928F929F9259
:103FA000AF92BF92CF92DF92EF92FF920F931F9347
:103FB000CF93DF93CDB7DEB728970FB6F894DEBF67
:103FC0000FBECDBF309078018091DC069091DD0668
:103FD000A091DE06B091DF069C01AD0150582B8305
:103FE0003C834D835E83EE24FF2480E090E0222416
:103FF000239498878F839FC0332011F422E1322EBF
:104000003A94832D90E0EBE3F0E08E9FA0018F9F28
:10401000500D9E9F500D11244A565E4F5A8349837E
:104020002F8138852115310509F47FC0E114F10491
:1040300009F47BC0F901718C628C538C448C6589C6
:1040400076898789908DA301E52DF42D052F142FF6
:104050009F01A90198010E94F331882309F465C0EA
:10406000EF81F88582A1882309F050C0F701C58847
:10407000D688E788F08CA3019201852F942FA32F77
:10408000B22FBC01CD01A70196010E94F63318168C
:10409000ECF5C701B601A70196010E94C8346B0177
:1040A0007C016B817C818D819E819B01AC010E9492
:1040B0001A31EF81F885258D368D478D50A10E94EC
:1040C000C8349B01AC01C701B6010E9419310E949E
:1040D0005535162F072FF82EE92EA3019201852FB3
:1040E000942FA32FB22FBC01CD0198014F2D5E2D2F
:1040F000832E922E5A01A50194010E94F33187FF6D
:1041000002C083017201A801970102C0A3019201BC
:10411000852F942FA32FB22FEF81F885858B968B57
:10412000A78BB08FEF81F88521A2EF80F8842981D9
:104130003A8138872F8380917701381609F05CCF58
:1041400010917701EE24FF24CC24DD249BE3892EFB
:10415000912C36012BC0812F90E0889D6001899DB4
:10416000D00C989DD00C112446E951E0C40ED51E08
:1041700061147104A9F0F30182A1882389F465898F
:1041800076898789908DF701258936894789508DF1
:104190000E94F33187FF04C0C301B7010E94411F91
:1041A0001F5F123109F410E0370176018091780128
:1041B000181789F661147104A9F0F30182A188230C
:1041C00089F4658976898789908DF70125893689F3
:1041D0004789508D0E94F33187FF04C0C301B701A6
:1041E0000E94411FF0907701662477248BE3282EEC
:1041F000312C7A82698245C08F2D90E0829D6001CA
:10420000839DD00C929DD00C112426E931E0C20E82
:10421000D31E49815A814115510561F1FA0181A1ED
:10422000882321F4F60181A1882321F1E981FA8113
:1042300081889288A388B488658976898789908DDA
:10424000A50194010E94FA312B013C01F601658918
:1042500076898789908DA50194010E94FA318B019E
:104260009C0189819A81B301A2010E94B71DE98155
:10427000FA8111A2F394F2E1FF1609F4FF24DA8225
:10428000C98280917801F81609F0B6CF69807A80EA
:10429000F301C188D288E388F488658976898789A3
:1042A000908DA70196010E94FA314B015C0160E0FC
:1042B00070E0CB01A70196010E94FA318B019C01AD
:1042C000C301B501A4010E94B71DF30111A22896F4
:1042D0000FB6F894DEBF0FBECDBFDF91CF911F9117
:1042E0000F91FF90EF90DF90CF90BF90AF909F9095
:1042F0008F907F906F905F904F903F902F90089598
:104300008091780180937701809178018F5F82316D
:1043100009F480E08093790108950E9480218CE166
:10432000EAE7F1E0DF011D928A95E9F7089590919F
:10433000780180917701981741F0809177018F5F24
:10434000823109F480E0809377010895909178019B
:1043500080917701981779F04091770150E02BE335
:1043600030E0429FC001439F900D529F900D112459
:104370008A569E4F089580E090E00895209177013D
:1043800081E090917901291380E0089506C00E9490
:1043900018148091BC05882341F40E94A62100973F
:1043A000B1F78091BD05833091F308952F923F922C
:1043B0004F925F926F927F928F929F92AF92BF9235
:1043C000CF92DF92EF92FF920F931F93CF93DF93E1
:1043D000CDB7DEB7E2970FB6F894DEBF0FBECDBF04
:1043E0002B013C012B833C834D835E83AF8AB88EC7
:1043F000C98EDA8E8DA62091780130E08BE390E0B3
:10440000289F6001299FD00C389FD00C1124960161
:104410002A563E4F3A8329838091C1069091C20665
:10442000A091C306B091C4068B879C87AD87BE87D9
:10443000C301B2012B853C854D855E850E94C83441
:104440000E9498346B8F7C8F8D8F9E8F2091C50634
:104450003091C6064091C7065091C8062F87388B09
:10446000498B5A8B6B817C818D819E810E94C834DF
:104470000E9498346B837C838D839E838091C906D0
:104480009091CA06A091CB06B091CC068B8B9C8BE9
:10449000AD8BBE8BC801B7012B893C894D895E89E4
:1044A0000E94C8340E9498346F8F78A389A39AA37E
:1044B000A981BA811C9240917A0150917B0160914F
:1044C0007C0170917D01CB8CDC8CED8CFE8CC41654
:1044D000D506E606F70614F480E28C9380917E01FF
:1044E00090917F01A0918001B0918101EB80FC80CF
:1044F0000D811E81E816F9060A071B072CF4E981D5
:10450000FA8120812064208300918201109183012F
:104510002091840130918501CF8CD8A0E9A0FAA028
:10452000C016D106E206F30644F4E981FA81F08070
:10453000F0E8FF2AE981FA81F082CB8CDC8CED8CEB
:10454000FE8CC41AD50AE60AF70AB701A601F7FEDF
:1045500007C0CC24DD247601C41AD50AE60AF70A7E
:10456000E981FA81C182D282E382F4824B805C804D
:104570006D807E80481A590A6A0A7B0AD301C201FB
:1045800077FE07C088279927DC0184199509A609B9
:10459000B7098F839BA33A2E2B2EE981FA8185835D
:1045A0009683A783B0878F8C98A0A9A0BAA0801A01
:1045B000910AA20AB30A95018401B7FE07C0002739
:1045C00011279801081919092A093B09A981BA81FB
:1045D00019960D931D932D933C931C978F819BA14E
:1045E000A32DB22D8C159D05AE05BF0510F4D70186
:1045F000C6018F839887A987BA8780179107A2077A
:10460000B30720F40F83188729873A87CF80D8848F
:10461000E984FA84A981BA811D96CD92DD92ED924A
:10462000FC925097C114D104E104F10409F429C3A8
:10463000CB01BA010E9495322B853C854D855E8564
:104640000E94FA31262E7BA38CA39DA3C301B20145
:104650000E9495322F85388949895A890E94FA31FA
:10466000462E372E582E9EA3C501B4010E949532C6
:104670002B893C894D895E890E94FA316FA378A706
:104680008EA79FA74BA13CA12DA1822D942FA32FD4
:10469000B22FBC01CD01E42F022D1E2F232F3B2F63
:1046A000A90198010E94C8346B017C01352D2EA10F
:1046B000842D932DA52DB22FBC01CD01042D132DDA
:1046C000232F3B2FA90198010E94C8349B01AC0104
:1046D000C701B6010E941A316B017C015FA148A598
:1046E0003EA52FA5852F942FA32FB22FBC01CD015E
:1046F000FA010F2F1E2F232F3B2FA90198010E9493
:10470000C8349B01AC01C701B6010E941A310E9456
:10471000553569A77AA78BA79CA7E981FA81658F90
:10472000768F878F90A360E070E080E89FE329A5F3
:104730003AA54BA55CA50E94FA31A62E772E682ECD
:10474000992ECDA4CC2069F46F89788D898D9A8DAE
:104750000A2D172D262D392DA90198010E94C83444
:104760000AC060E070E080E89FE32F89388D498DB2
:104770005A8D0E94FA31862EB72E8C0169A57AA532
:104780008BA59CA5C82CDB2CE02EF12EA701960151
:104790000E94C8346B877F878B8B9F8B472F382F66
:1047A000292F862F942FA32FB22FE981FA81818B95
:1047B000928BA38BB48B6F81788589859A850E94B3
:1047C00095326B017C01502F412F082D1B2D252F79
:1047D000342FA90198010E94C8340E94E0310E9440
:1047E0006732DC01CB01E981FA8187AB90AFA1AFE1
:1047F000B2AF0091DC061091DD062091DE0630910B
:10480000DF060F83188729873A87C701B6010A2D6B
:10481000172D262D392DA90198010E94C8342F810A
:10482000388549855A850E94C83420E030E84BE33A
:1048300055E40E94FA310E94E0310E946232DC01AC
:10484000CB01E981FA8183A794A7A5A7B6A74BA1BD
:104850003CA12DA1822D942FA32FB22FBC01CD01FD
:10486000262D392DA90198010E94C8346BA37CA381
:104870008DA39DA72EA1842D932DA52DB22FBC0114
:10488000CD01262D392DA90198010E94C8346EA3AF
:1048900078AB89AB9AAB5FA148A53EA52FA5852F24
:1048A000942FA32FB22FBC01CD01262D392DA901A4
:1048B00098010E94C834362E272E8FA398A7909176
:1048C000780180917701981709F4F6C01091920150
:1048D00000919301F0909401E0909501A801970157
:1048E000852F942FA32FB22FBC01CD0120E030E003
:1048F000A9010E94F63318160CF0DEC080918601E3
:1049000090918701A0918801B0918901BC01CD01EE
:1049100090585BA14CA13DA12DA5852E942EA32ED0
:10492000B22EA50194010E94C8344B015C015EA126
:1049300048A939A92AA9852F942FA32FB22FBC01EA
:10494000CD0120918A0130918B0140918C015091D1
:104950008D010E94C8349B01AC01C501B4010E94C5
:1049600019314B015C01A1013FA128A5852F942F8E
:10497000A32FB22FBC01CD0120918E0130918F0168
:1049800040919001509191010E94C8349B01AC016B
:10499000C501B4010E9419316B01782E692E930173
:1049A000862F9D2DA32FB22FBC01CD0123E333E32E
:1049B00043E75FE30E94F33187FF7EC0A8019701C0
:1049C000852F942FA32FB22FBC01CD015B854F857E
:1049D0003B892F89852E942EA32EB22EA5019401FA
:1049E0000E94F33187FD04C0182D092DFA2CEB2C01
:1049F00093018C2D9D2DA32FB62DBC01CD0123E35A
:104A000033E343E75FEB0E94F63318160CF05BC00C
:104A100060E070E080E89FE393018C2C9D2CA32E36
:104A2000B62CA50194010E94193120E030E040E04D
:104A30005FE30E94C8340E9455354B015C016F81D1
:104A4000788589859A852091E0063091E10640912C
:104A5000E2065091E3060E94C834A50194010E9429
:104A6000C8342B013C0160E070E080E89FE3A501C1
:104A700094010E9419319B01AC01C301B2010E9453
:104A8000FA310E945535D62EC72E782E692EA801F0
:104A90009701852F902FA32FBE2DBC01CD01A6011C
:104AA0009301852E942EA32EB22EA50194010E946F
:104AB000F33187FD08C005C010E000E0FF24EE24BC
:104AC00002C086017301A8019701852F902FA32FA3
:104AD000BE2DE981FA81818F928FA38FB48F2F81B0
:104AE000388549855A855058CA01B9010E941A3142
:104AF00029A53AA54BA55CA50E94C8349B01AC0131
:104B000060E070E0CB010E9419310E9455356B01C5
:104B1000782E692EA8019701852F902FA32FBE2DE7
:104B2000BC01CD0193018C2C9D2CA32EB22EA5018E
:104B300094010E94F33187FD03C01C2D0D2D7301DC
:104B4000A8019701852F902FA32FBE2DE981FA810F
:104B5000858B968BA78BB08F5B854F853B892F8983
:104B6000852F942FA32FB22FBC01CD01A3010C2DB3
:104B70001D2D252F362DA90198010E94F3311816FD
:104B80003CF081E0A981BA8192968C93929703C000
:104B9000E981FA8112A281E0A981BA8191968C9370
:104BA0005BA14CA13DA12DA5852F942FA32FB22F42
:104BB0008093860190938701A0938801B093890127
:104BC0005EA148A939A92AA9852F942FA32FB22F16
:104BD00080938A0190938B01A0938C01B0938D01F7
:104BE000A1013FA128A5852F922DA32FB22F80933D
:104BF0008E0190938F01A0939001B09391015B85FA
:104C00004F853B892F89852F942FA32FB22F809317
:104C1000920190939301A0939401B0939501809198
:104C2000790180937801809178018F5F823109F456
:104C300080E080937901CB8CDC8CED8CFE8CC09273
:104C40007A01D0927B01E0927C01F0927D01EB80B1
:104C5000FC800D811E81E0927E01F0927F01009325
:104C60008001109381010F8D18A129A13AA1009311
:104C700082011093830120938401309385010E9467
:104C8000C81FE2960FB6F894DEBF0FBECDBFDF910E
:104C9000CF911F910F91FF90EF90DF90CF90BF9039
:104CA000AF909F908F907F906F905F904F903F90CC
:104CB0002F9008958F929F92AF92BF92EF92FF92A2
:104CC0000F931F934B015C01DA01C90180927A01B5
:104CD00090927B01A0927C01B0927D0180937E0135
:104CE00090937F01A0938001B0938101E0928201B3
:104CF000F092830100938401109385011F910F911D
:104D0000FF90EF90BF90AF909F908F9008958F92FB
:104D10009F92AF92BF92CF92DF92EF92FF92CF938A
:104D2000DF934B015C012091770130E08BE390E051
:104D3000289FE001299FD00D389FD00D1124CA561D
:104D4000DE4FC501B4010E9495322D8D3E8D4F8DF1
:104D500058A10E94C8346B017C016D857E858F85CA
:104D600098890E9495329B01AC01C701B6010E944F
:104D7000FA31DC01CB018D8F9E8FAF8FB8A38D866A
:104D80009E86AF86B88A80E090E0DC018D8B9E8B9A
:104D9000AF8BB88F898F9A8FAB8FBC8F1AA281E0AF
:104DA00089A30E94C81FDF91CF91FF90EF90DF9001
:104DB000CF90BF90AF909F908F9008956F927F9209
:104DC0008F929F92AF92BF92CF92DF92EF92FF921B
:104DD0000F931F93CF93DF934C013B015A01FB01CB
:104DE0008081F401E80FF11D80818D3231F48181E1
:104DF0008F010E5F1F4FD1E00BC08B3221F08F016E
:104E00000F5F1F4F04C081818F010E5F1F4FD0E0E5
:104E100030E020E0C0E040E050E0BA01E82FE0538D
:104E2000EA30F8F42F5F2930C0F43111C150DB01B2
:104E3000CA01F2E0880F991FAA1FBB1FFA95D1F78C
:104E4000480F591F6A1F7B1F440F551F661F771F8E
:104E50004E0F511D611D711D09C0332339F4CF5F01
:104E600005C0EE3F39F4332329F431E0F801819194
:104E70008F01D4CF222309F45CC0CB01BA010E9478
:104E80009332C62ED72EE82EF92E462F572F682F95
:104E9000792FCB01BA0120E030E0A9010E94F33163
:104EA000882371F433C0C701B6012AE037ED43E22D
:104EB0005CE30E94C834C62ED72EE82EF92ECE5FB2
:104EC000CF3F8CF3CF3F89F48C2D9D2DAE2DBF2D80
:104ED000BC01CD012DEC3CEC4CEC5DE30E94C834F0
:104EE000C62ED72EE82EF92E11C0CC2379F0C7019B
:104EF000B60120E030E040E251E40E94C834C62E02
:104F0000D72EE82EF92EC1501C168CF3DD2321F08C
:104F1000F7FAF094F7F8F094F501C082D182E282BA
:104F2000F382081919090150F301008381E090E030
:104F300002C080E090E0DF91CF911F910F91FF9030
:104F4000EF90DF90CF90BF90AF909F908F907F9029
:104F50006F90089507C0EFE9FFE03197F1F700C0C7
:104F6000000001970097B9F70895DC01CB0137C025
:104F70008A309105A105B10540F425E02A95F1F7A5
:104F800000000197A109B1092AC084369105A10545
:104F9000B10540F4E5E3EA95F1F700000A97A109AD
:104FA000B1091DC0883EF3E09F07F0E0AF07F0E0D5
:104FB000BF0758F4EFE8F1E03197F1F700C00000C7
:104FC00084569040A040B0400AC0EFE9FFE031971E
:104FD000F1F700C00000885E9340A040B040009709
:104FE000A105B10529F60895EF92FF920F931F9343
:104FF0006091BF057091C0058091C1059091C20577
:105000002091C3053091C4054091C5055091C60556
:10501000E090C705F090C8050091C9051091CA0538
:105020000E945A266091BF057091C0058091C1050C
:105030009091C2052091C3053091C4054091C505EA
:105040005091C605E090C705F090C8050091C905CC
:105050001091CA050E9450091F910F91FF90EF9087
:1050600008953F924F925F926F927F928F929F929C
:10507000AF92BF92CF92DF92EF92FF920F931F9366
:10508000CF93DF93CDB7DEB7AC970FB6F894DEBF02
:105090000FBECDBFB82E562E342E38014901FE0169
:1050A00031968CE0DF011D928A95E9F70B2DB0FE59
:1050B00010C06091C1067091C2068091C3069091A4
:1050C000C4060E94983469837A838B839C8311E0A1
:1050D00001C010E001FF0FC01F5F6091C506709115
:1050E000C6068091C7069091C8060E9498346D83C9
:1050F0007E838F83988702FF0FC01F5F6091C90670
:105100007091CA068091CB069091CC060E9498348B
:1051100069877A878B879C8789859A85AB85BC85CB
:105120004D815E816F817885481759076A077B0733
:1051300010F4AC01BD0189819A81AB81BC81498B9E
:105140005A8B6B8B7C8B481759076A077B0720F4B7
:10515000898B9A8BAB8BBC8B612F70E080E090E0E9
:105160000E9493320E9455356B017C0169897A89CE
:105170008B899C890E949332A70196010E94FA3183
:10518000162F472E082FA92E862F942DA02FBA2D2B
:10519000BC01CD012091DC063091DD064091DE0698
:1051A0005091DF060E94C83420E030E84BE355E41C
:1051B0000E94FA310E94E0310E94673269A37AA30B
:1051C0008BA39CA3C401B301A70196010E94C8341C
:1051D0009B01AC01812F942DA02FBA2DBC01CD01D4
:1051E0000E94C8349B01AC0160EC71EE84E69CE443
:1051F0000E94FA310E9498346D877E878F87988B42
:105200002D853E854F855889283F64E2360761E049
:10521000460760E0560740F0A8EFCA2EA4E2DA2E57
:10522000A1E0EA2EF12C04C0CD84DE84EF84F8885E
:105230001091E506107E8091D7061827552011F4AD
:1052400080EE182749885A886B887C887694679402
:10525000579447947094609450944094411C511C0E
:10526000611C711C8091CE06A7019601281B310993
:105270004109510929A73AA74BA75CA7498E5A8E25
:105280006B8E7C8E4D8A5E8A6F8A788E40E157E203
:1052900060E070E04D8F5E8F6F8F78A31DA21EA21D
:1052A0001FA218A69EE0A92E04E00127E8E09E2E8A
:1052B000F0E18F2E802F012F1B2DB82E23B131103E
:1052C0002A2510FF1CC089819A81AB81BC81480EC0
:1052D000591E6A1E7B1E14141504160417047CF450
:1052E00021FF02C03B2D02C01E7F302F69897A89C1
:1052F0008B899C89461A570A680A790A01C0302F9F
:1053000011FF2AC08D819E81AF81B8854D895E894C
:105310006F89788D480F591F6A1F7B1F4D8B5E8BDD
:105320006F8B788F1416150616061706ACF422FF3D
:1053300002C0392501C01D7F8D899E89AF89B88D36
:1053400049895A896B897C89841B950BA60BB70BFD
:105350008D8B9E8BAF8BB88F12FF2AC089859A8563
:10536000AB85BC85498D5A8D6B8D7C8D480F591F3F
:105370006A1F7B1F498F5A8F6B8F7C8F14161506FF
:1053800016061706C4F423FF02C0382501C01B7F90
:10539000898D9A8DAB8DBC8D49895A896B897C89A1
:1053A000841B950BA60BB70B898F9A8FAB8FBC8F85
:1053B000112309F472C08091BE0584FD6EC08BB1CB
:1053C0003C71837E382B3BB96091CE0670E080E063
:1053D00090E00E94B5270BB969A57AA58BA59CA57D
:1053E0000E94B5276D857E858F8598896C157D0512
:1053F0008E059F0508F062CF8D8D9E8DAF8DB8A173
:105400008C0D9D1DAE1DBF1D8D8F9E8FAF8FB8A3C0
:1054100081322EE4920720E0A20720E0B20708F4D0
:105420004DCF80529E44A040B0408D8F9E8FAF8F55
:10543000B8A34DA15EA16FA178A589A19AA1ABA146
:10544000BCA1480F591F6A1F7B1F4DA35EA36FA30A
:1054500078A760E077E883E993E02DA13EA14FA112
:1054600058A50E94D43569017A012D853E854F8566
:105470005889C216D306E406F50610F469017A01CC
:105480008091CE06B701A601481B51096109710937
:1054900049A75AA76BA77CA711CFAC960FB6F89473
:1054A000DEBF0FBECDBFDF91CF911F910F91FF9057
:1054B000EF90DF90CF90BF90AF909F908F907F90B4
:1054C0006F905F904F903F90089584B1817F84B931
:1054D00085B18E6085B98091E40683FF09C0809113
:1054E0006B008E6080936B0080916800816008C0C3
:1054F00080916B00817F80936B00809168008E7F2C
:105500008093680008951F920F920FB60F92112496
:105510002F933F934F935F936F937F938F939F93BB
:10552000AF93BF93EF93FF938091BD05863059F001
:105530008091BE0585FD07C00E940C098091BE05C3
:1055400080648093BE05FF91EF91BF91AF919F91D1
:105550008F917F916F915F914F913F912F910F901C
:105560000FBE0F901F9018950F931F93CF930E941B
:1055700092160091EA061091EB062091EC0630910C
:10558000ED0684E061E040E00E9431280091EA06E7
:105590001091EB062091EC063091ED0683E061E07E
:1055A00040E00E9431288091EE069091EF060E9423
:1055B000AA27C2E0C1500091E6061091E7062091AB
:1055C000E8063091E90687E060E041E00E9431287A
:1055D0008091EE069091EF060E94AA27C130A1F4B7
:1055E0000091E6061091E7062091E8063091E90661
:1055F00087E061E040E00E9431288091EE069091C2
:10560000EF060E94AA27D6CFCC23A1F60E94B61699
:10561000CF911F910F910895CF93DF93EC0102C0BA
:105620000E94F51289918823D9F7DF91CF910895CF
:10563000CF93DF93EC0102C00E94F512FE01219688
:1056400084918823C9F7DF91CF910895EF92FF925B
:105650000F931F93CF93DF93CDB7DEB728970FB685
:10566000F894DEBF0FBECDBFFE01319698E0282F23
:105670002170219386959150D1F78E01075F1F4FBE
:105680007E010894E11CF11CF80182918F01805D7C
:105690000E94F5120E151F05B9F728960FB6F8945B
:1056A000DEBF0FBECDBFDF91CF911F910F91FF9055
:1056B000EF900895AF92BF92CF92DF92EF92FF9258
:1056C0001F93CF93DF93CDB7DEB72A970FB6F89429
:1056D000DEBF0FBECDBF6B017C0197FF0BC08DE21B
:1056E0000E94F512F094E094D094C094C11CD11C97
:1056F000E11CF11CD701C601C114D104E104F1047D
:1057000021F480E30E94F51227C010E03AE0C32E96
:10571000D12CE12CF12C21E0A22EB12CAC0EBD1E1F
:10572000A10EB11CBC01CD01A70196010E94D43588
:10573000605DF50160831F5FC901DA010097A10573
:10574000B10549F707C0FE01E10FF11D80810E94FC
:10575000F51211501123B9F72A960FB6F894DEBF4F
:105760000FBECDBFDF91CF911F91FF90EF90DF90E3
:10577000CF90BF90AF9008954F925F926F927F92BB
:105780008F929F92AF92BF92CF92DF92EF92FF9251
:105790000F931F93CF93DF93CDB7DEB72A970FB642
:1057A000F894DEBF0FBECDBF6B017C0120E030E07E
:1057B000A9010E94F33187FF07C08DE20E94F51214
:1057C000F7FAF094F7F8F0940091F506102F0DC059
:1057D000C701B60120E030E048EC52E40E94C83432
:1057E000C62ED72EE82EF92E1250123088F700FF61
:1057F00010C08C2D9D2DAE2DBF2DBC01CD0120E004
:1058000030E040E251E40E94C834C62ED72EE82E84
:10581000F92EC701B60120E030E040E05FE30E94CE
:105820001A310E9462326B017C01CE010196FC01AB
:10583000E00FF11D2EE2208310E02C016AE0862E9D
:10584000912CA12CB12C12C0101709F41F5F32014A
:10585000610E711CC701B601A50194010E94D435E7
:10586000605DF30160831F5F69017A01C114D10497
:10587000E104F10449F709C0E1E0F0E0EC0FFD1F9D
:10588000E10FF11D80831F5F01C080E31017A0F3BB
:10589000101781F4812F8F5FFE01E80FF11D80E367
:1058A00081831E5F07C0FE01E10FF11D80810E9410
:1058B000F51211501123B9F72A960FB6F894DEBFEE
:1058C0000FBECDBFDF91CF911F910F91FF90EF9051
:1058D000DF90CF90BF90AF909F908F907F906F9010
:1058E0005F904F900895CF93C82F882319F481EECD
:1058F00090E050C086EE90E00E94182BC73091F1E6
:10590000C83070F4C33011F1C43028F4C130C1F094
:10591000C230F1F518C0C530F9F0C63000F519C035
:10592000CA3049F1CB3028F4C830F9F0C93081F5DC
:105930001FC0CC3031F1CC3008F1CD3049F524C056
:105940008EEE90E023C080E091E020C088E191E0FD
:105950001DC08EE291E01AC08DE391E017C083E58F
:1059600091E014C085E691E011C086E791E00EC099
:1059700082E891E00BC081E991E008C082EB91E000
:1059800005C081EC91E002C08CEC91E00E94182BE4
:105990008AED91E00E94182BCF910895CF93C82FE4
:1059A0008DED91E00E94182BCE3F29F0CF3F39F4C6
:1059B00085EE91E002C080EF91E00E94182B83E019
:1059C00092E00E94182B84EF91E00E94AA27CF91C9
:1059D0000895CF93C82F8DE092E00E94182BC3301A
:1059E00091F0C43028F4C13041F0C230B1F408C0A5
:1059F000C43061F0C53089F40CC08FE092E00BC078
:105A000081E292E008C085E392E005C087E492E07D
:105A100002C08FE492E00E94182B88E592E00E9479
:105A2000182BCF9108958CE592E00E94182B0895D1
:105A300089E792E00E94182B089587EA93E00E947C
:105A4000182B6091C1067091C2068091C306909197
:105A5000C4060E94BC2B8BEA93E00E94182B609135
:105A6000C5067091C6068091C7069091C8060E942F
:105A7000BC2B8EEB93E00E94182B6091C9067091AD
:105A8000CA068091CB069091CC060E94BC2B81ED7A
:105A900093E00E94182B6091CE0670E080E090E0C9
:105AA0000E945A2B84EE93E00E94182B6091CF063F
:105AB0007091D0068091D1069091D2060E94BC2BA5
:105AC0008DEF93E00E94182B6091D3067091D4065D
:105AD0008091D5069091D6060E94BC2B8AE194E075
